:020000040800F2
:100000000000082075190008C5190008C519000866
:10001000C5190008C5190008C5190008000000002E
:10002000000000000000000000000000C5190008EA
:10003000C519000800000000C5190008C51900080E
:10004000C5190008C5190008C5190008C519000818
:10005000C5190008C5190008C5190008C519000808
:10006000C5190008C5190008C5190008C5190008F8
:10007000C5190008C5190008C5190008C5190008E8
:10008000C5190008C5190008C5190008C5190008D8
:10009000C5190008C5190008C5190008C5190008C8
:1000A000C5190008C5190008C5190008C5190008B8
:1000B000C5190008C5190008C5190008C5190008A8
:1000C000C5190008C5190008C5190008C519000898
:1000D000C5190008C5190008ED040008C519000875
:1000E000C5190008C5190008C5190008C519000878
:1000F000C5190008C5190008C5190008C519000868
:10010000C5190008C5190008C5190008C519000857
:10011000C5190008C5190008C5190008C519000847
:10012000C5190008C5190008C5190008C519000837
:10013000C5190008C5190008C5190008C519000827
:10014000C5190008C5190008C5190008C519000817
:10015000C5190008C5190008C5190008C519000807
:10016000C5190008C5190008C5190008C5190008F7
:10017000C5190008C5190008C519000800000000CD
:10018000C5190008C5190008C5190008C5190008D7
:10019000C5190008C5190008C5190008C5190008C7
:1001A000C5190008C5190008C5190008C5190008B7
:1001B000C5190008C5190008C5190008C5190008A7
:1001C000C5190008C519000800000000C51900087D
:1001D000C5190008C5190008C5190008C519000887
:1001E000C5190008C5190008C5190008C519000877
:0801F000C5190008C51900083B
:10020000034613F8012B002AFBD1181A0138704756
:1002100001F0FF01102A2BDB10F0070F08D010F8B7
:10022000013B013A8B422DD010F0070F42B3F6D1BB
:10023000F0B441EA012141EA014122F007047FF0D4
:1002400000070023F0E80256083C85EA010586EA2B
:10025000010685FA47F5A3FA87F586FA47F6A5FA67
:1002600087F68EB9EED1F0BC01F0FF0102F0070273
:1002700032B110F8013B013A83EA010313B1F8D11E
:100280000020704701387047002D06BF35460338FF
:10029000073815F0010F07D1013015F4807F02BF38
:1002A000013015F4C03F0130F0BC0138704700BF89
:1002B00010B5054C237833B9044B13B10448AFF3A0
:1002C00000800123237010BD840000200000000086
:1002D0009829000808B5034B1BB103490348AFF345
:1002E000008008BD00000000880000209829000858
:1002F00080B483B000AF00237B6002E07B680133F1
:100300007B607B68044A9342F8D900BF00BF0C377A
:10031000BD465DF8047B70473F0D030080B584B097
:1003200000AF0E4B7B6002237B7200233B730123E3
:10033000FB7207237B730223BB7205233B723B1DB9
:10034000184600F0FDFB06233B723B1D184600F0EB
:10035000F7FB00BF1037BD4680BD00BF000C024058
:1003600080B500AF0D4B0E4A1A600C4B4FF4E132D2
:100370009A600A4B0022DA73084B02221A71074B6B
:1003800000221A73054B00225A73044B00229A7301
:10039000024800F06DFF00BF80BD00BFA004002038
:1003A0000044004080B584B000AF094B7B600D2352
:1003B0003B7200237B720023BB720023FB723B1D48
:1003C000184600F0BDFB00BF1037BD4680BD00BF22
:1003D0000008024090B585B002AF00237B60022385
:1003E0000093002300220021002000F035FAFFF7DF
:1003F000D9FFFFF793FFFFF7B3FF0121262001F09C
:1004000035F801212F4800F0B2FF2F4801F08AFB98
:1004100000BF0D212D4800F041FD0346002BF8D010
:10042000FFF766FF7A682A4BA3FB021359080B46B5
:100430005B000B44D31A7B6000BF264A7B6852F8EE
:1004400023301846FFF7DCFE03461A4622492348AC
:1004500001F0CEF80346002BEFD11E4A7B6852F81C
:1004600023401C4A7B6852F823301846FFF7C8FE29
:1004700003461A462146194800F0A9FF154A7B6831
:1004800052F823301946164801F0D8FA00BF154B30
:100490001B78012BFBD10F4A7B6852F8233018469A
:1004A000FFF7AEFE034601330B4A0021D1540A493F
:1004B0000D4801F0C3FA0B4B00221A707B68013320
:1004C0007B60A5E700440040E829000800080240DE
:1004D000ABAAAAAA00000020A0000020A0040020CF
:1004E000002A0008C4040020142A000880B500AFC8
:1004F000024801F0A3F800BF80BD00BFA0040020A7
:1005000080B483B000AF78600B46FB70FB78012BA2
:1005100002D1044B01221A7000BF0C37BD465DF8B2
:10052000047B7047C404002080B582B000AF264B26
:100530003B60A8220021386801F078FA3B6803226A
:100540001A613B6803225A613B68204A9A613B6802
:100550001F4ADA613B684FF480621A623B680022EE
:100560009A623B6800225A623B680022DA623B686A
:10057000164A1A663B68174A5A663B6810229A6602
:100580003B6800221A673B680022DA663B6800225B
:100590005A67BFF35F8F00237B600CE07B68C3F179
:1005A0000F030D4AD15C3A687B6813440A461A70FF
:1005B0007B6801337B607B680F2BEFD9BFF35F8FC4
:1005C00000BF0837BD4680BDC8040020282A0008A7
:1005D0007005002070090020342A000880B58AB018
:1005E00000AFF860B9607A6000233B62FB68DB68AB
:1005F000FB61FB681B69BB61BA69FB699A4205D95B
:10060000BA69FB69D31A013B7B6207E0FB689A6811
:10061000B969FB69CB1A1344013B7B62FB689A689A
:10062000FB69D31A7A6A934228BF13467B627A6ABF
:100630007B68934228BF13467B62FB685A68FB695C
:1006400013447B617A6AB968786901F0E1F93A6A22
:100650007B6A13443B62BA687B6A1344BB607A6866
:100660007B6AD31A7B60FA697B6A1344FB61FB687F
:100670009B68FA699A4201D10023FB61BFF35F8F47
:10068000FB68FA69DA607B68002BB2D13B6A1846D6
:100690002837BD4680BD80B588B000AFF860B9602E
:1006A0007A60FB68DB68FB61FB689A68FB69D31AB8
:1006B000BB61BA697B689A4211D9FB685A68FB69C9
:1006C00013443B617A68B968386901F0A1F9BFF356
:1006D0005F8FFA697B681A44FB68DA601FE0BB69C8
:1006E0007B61FB685A68FB6913443B617A69B968AE
:1006F000386901F08DF97A68BB69D31A7B61FB68B0
:100700005B683B61BA68BB6913447A69194638690A
:1007100001F07EF9BFF35F8FFB687A69DA6000BF92
:100720002037BD4680BD80B487B000AF78607B685D
:100730001B693B617B68DB68FB603A69FB689A4236
:1007400008D87B689A68FB68D21A3B691344013B5E
:100750007B6104E03A69FB68D31A013B7B617B69EA
:1007600018461C37BD465DF8047B704780B588B0DD
:1007700000AFF860B9607A60BB68BB61FB685A1C67
:1007800013465B001344DB001F4A13447B617B6903
:100790005B69022B29D0022B2ED8002B02D0012B13
:1007A00013D029E07869FFF7BEFF38613A697B68AA
:1007B0009A4202D20023FB6121E07B68FB617A68E8
:1007C000B9697869FFF767FF19E07869FFF7ABFF50
:1007D00038617A683B69934228BF1346FB61FA6926
:1007E000B9697869FFF757FF09E07A68B9697869EC
:1007F000FFF7F4FEF86102E00023FB6100BFFB6934
:1008000018462037BD4680BDC804002080B588B09A
:1008100000AFF860B9607A600E4BFB61FB691B7832
:10082000DBB2002B01D1FFF77FFEEFF311834FF016
:10083000200181F31188BB617A68B968F868FFF715
:1008400095FF7861BB6983F311887B69184620376F
:10085000BD4680BDC804002080B58AB000AFF860F6
:10086000B9607A603B60204B3B623B6A1B78DBB22D
:10087000002B01D1FFF758FE1B4BFB61FB68022BDD
:100880002AD8EFF311834FF0200181F31188BB6167
:10089000FB685A1C13465B001344DB00FA691344DF
:1008A0007B61FB68002B0ED07B69BA681A607B699C
:1008B0007A685A607B693A689A607B6900221A619B
:1008C0007B690022DA607B693A6B5A61BB6983F30A
:1008D000118800237B6202E04FF0FF337B627B6A6A
:1008E00018462837BD4680BDC804002080B584B0B6
:1008F00000AFF860B9607A603B603A6879680020C0
:10090000FFF784FF3B6818461037BD4680BD0000E6
:1009100080B483B000AF78600B46FB70FB78012B8E
:1009200078D17B687A4A934206D17A4B1B6B794A1D
:1009300043F001031363E5E07B68774A934206D1F5
:10094000744B1B6B734A43F002031363DAE07B685A
:10095000724A934206D16F4B1B6B6E4A43F00403FD
:100960001363CFE07B686E4A934206D1694B1B6BE1
:10097000684A43F008031363C4E07B68694A934202
:1009800006D1644B1B6B634A43F010031363B9E059
:100990007B68654A934206D15E4B1B6B5D4A43F010
:1009A00020031363AEE07B68604A934206D1594B43
:1009B0001B6B584A43F040031363A3E07B685C4A17
:1009C000934206D1534B1B6B524A43F0800313638F
:1009D00098E07B68574A934206D14E4B1B6B4D4AB9
:1009E00043F4807313638DE07B68534A934206D1CE
:1009F000484B1B6B474A43F40073136382E07B68E8
:100A00004E4A93427ED1434B1B6B424A43F4806370
:100A1000136377E07B683E4A934206D13D4B1B6BE4
:100A20003C4A23F0010313636CE07B683A4A93422B
:100A300006D1384B1B6B374A23F00203136361E086
:100A40007B68364A934206D1324B1B6B314A23F006
:100A50000403136356E07B68314A934206D12D4B61
:100A60001B6B2C4A23F0080313634BE07B682D4A71
:100A7000934206D1274B1B6B264A23F010031363C6
:100A800040E07B68284A934206D1224B1B6B214AE7
:100A900023F02003136335E07B68244A934206D198
:100AA0001C4B1B6B1B4A23F0400313632AE07B683B
:100AB0001F4A934206D1174B1B6B164A23F0800343
:100AC00013631FE07B681B4A934206D1114B1B6BDB
:100AD000104A23F48073136314E07B68164A934230
:100AE00006D10C4B1B6B0B4A23F40073136309E014
:100AF0007B68124A934205D1064B1B6B054A23F4CF
:100B00008063136300BF0C37BD465DF8047B7047FC
:100B10000000024000380240000402400008024089
:100B2000000C024000100240001402400018024075
:100B3000001C024000200240002402400028024025
:100B400080B586B000AF786000237B617B681B684E
:100B500001211846FFF7DCFE7B685B79032B20D868
:100B60007B685B791A467B681B795B0002FA03F3AA
:100B70007B617B681B681A687B681B795B000321BB
:100B800001FA03F3DB4319467B681B680A401A60CD
:100B90007B681B6819687B681B687A690A431A605E
:100BA000DDE07B685B79042B17D1524BDB687A68F8
:100BB0001279114601228A4011464E4A0B43D360F6
:100BC0004C4B9B687A681279114601228A40D243C5
:100BD0001146484A0B40936035E07B685B79052BF2
:100BE00017D1444B9B687A681279114601228A40DA
:100BF0001146404A0B4393603E4BDB687A6812799A
:100C0000114601228A40D24311463A4A0B40D36032
:100C100019E07B685B79062B15D1364B9B687A68A7
:100C20001279114601228A401146324A0B439360E1
:100C3000304BDB687A681279114601228A401146EE
:100C40002C4A0B43D3607B681B799B08FB747B6841
:100C50001B7903F00303BB747B681B68264A93422D
:100C600060D07B681B68254A934240D07B681B6834
:100C7000234A934239D07B681B68224A934232D080
:100C80007B681B68204A93422BD07B681B681F4AF5
:100C9000934224D07B681B681D4A93421DD07B6819
:100CA0001B681C4A934216D07B681B681A4A934201
:100CB0000FD07B681B68194A934208D07B681B6879
:100CC000174A934201D10A232DE000232BE0092388
:100CD00029E0082327E0072325E0062323E0052356
:100CE00021E004231FE003231DE002231BE0012376
:100CF00019E000BF003C0140000002400004024037
:100D000000080240000C02400010024000140240A3
:100D100000180240001C0240002002400024024053
:100D20000028024000237B74594B5B6C584A43F403
:100D3000804353647A7CBB7C9B0002FA03F1554AE2
:100D4000FB7C023342F82310534B1B687A681279FC
:100D5000114601228A4011464F4A0B4313607B68BB
:100D60009B791A467B681B795B0002FA03F37B616F
:100D70007B681B689A687B681B795B00032101FA1A
:100D800003F3DB4319467B681B680A409A607B6863
:100D90001B6899687B681B687A690A439A607B685C
:100DA000DB791A467B681B795B0002FA03F37B61EF
:100DB0007B681B68DA687B681B795B00032101FA9A
:100DC00003F3DB4319467B681B680A40DA607B68E3
:100DD0001B68D9687B681B687A690A43DA607B689C
:100DE0001B7A1A467B681B7902FA03F37B617B68E6
:100DF0001B685A687B681B79194601238B40DB43CB
:100E000019467B681B680A405A607B681B685968F2
:100E10007B681B687A690A435A607B685B79022B9E
:100E200031D17B681B79DB083B747B681B7903F04D
:100E30000703FB737B681B683A7C083253F8221067
:100E4000FB7B9B000F2202FA03F3DB4318467B680F
:100E50001B683A7C0140083243F822107B681B680B
:100E60003A7C083253F822107B685B7A1A46FB7B87
:100E70009B0002FA03F318467B681B683A7C014327
:100E8000083243F8221000BF1837BD4680BD00BFAE
:100E90000038024000380140003C014080B485B079
:100EA00000AF78600B46FB707B681A69FB7822FA0A
:100EB00003F3DBB203F00103FB73FB7B184614372B
:100EC000BD465DF8047B704780B483B000AF00235B
:100ED0007B607B6818460C37BD465DF8047B704725
:100EE00080B584B000AF254B9B689B08DBB203F054
:100EF00003033B723B7A002B02D1214BFB600BE0DA
:100F00003B7A012B02D11F4BFB6005E03B7A022BA1
:100F100002D1FFF7D9FFF860184B9B681B09DBB2C1
:100F200003F00F03FB71FB79072B02D801237B81B0
:100F300005E0FB79083B144A32F813307B810F4BF4
:100F40009B689B0ADBB203F00703FB71FB79032B61
:100F500002D801237B7204E0FB79043B0B4AD35C8B
:100F60007B727B89FA68B2FBF3F27B7AB2FBF3F314
:100F70003B603B6818461037BD4680BD00380240D4
:100F80000024F40000127A000C0000201C00002055
:100F900080B584B000AF254B9B689B08DBB203F0A3
:100FA00003033B723B7A002B02D1214BFB600BE029
:100FB0003B7A012B02D11F4BFB6005E03B7A022BF1
:100FC00002D1FFF781FFF860184B9B681B09DBB269
:100FD00003F00F03FB71FB79072B02D801237B8100
:100FE00005E0FB79083B144A32F813307B810F4B44
:100FF0009B685B0BDBB203F00703FB71FB79032BF0
:1010000002D801237B7204E0FB79043B0B4AD35CDA
:101010007B727B89FA68B2FBF3F27B7AB2FBF3F363
:101020003B603B6818461037BD4680BD0038024023
:101030000024F40000127A000C0000201C000020A4
:1010400080B483B000AF78600B46FB70FB78012B57
:1010500057D17B68594A934206D1594B5B6C584A29
:1010600043F010035364A3E07B68564A934206D1D1
:10107000534B1B6C524A43F40033136498E07B6873
:10108000514A934206D14E4B1B6C4D4A43F4802388
:1010900013648DE07B684D4A934206D1484B1B6C2C
:1010A000474A43F40023136482E07B68484A934232
:1010B00006D1434B1B6C424A43F48013136477E020
:1010C0007B68444A934206D13D4B5B6C3C4A43F0FB
:1010D000200353646CE07B683F4A934206D1384B4F
:1010E0001B6C374A43F08043136461E07B683B4AE2
:1010F00093425DD1324B1B6C314A43F00043136481
:1011000056E07B682D4A934206D12D4B5B6C2C4AEE
:1011100023F0100353644BE07B682A4A934206D1C4
:10112000274B1B6C264A23F40033136440E07B6892
:10113000254A934206D1224B1B6C214A23F480237B
:10114000136435E07B68214A934206D11C4B1B6C2B
:101150001B4A23F4002313642AE07B681C4A934251
:1011600006D1174B1B6C164A23F4801313641FE03F
:101170007B68184A934206D1114B5B6C104A23F0EE
:101180002003536414E07B68134A934206D10C4B4E
:101190001B6C0B4A23F08043136409E07B680F4A01
:1011A000934205D1064B1B6C054A23F000431364A0
:1011B00000BF0C37BD465DF8047B7047001001404E
:1011C000003802400044004000480040004C00400D
:1011D000005000400014014000780040007C0040B6
:1011E00080B586B000AF7860396000233B617B68D2
:1011F0001D4A934203D07B681C4A934203D1FFF7F8
:10120000C7FE786102E0FFF76BFE78617B681B68C0
:1012100003F40043002B18D07B695A003B685B083D
:101220001A443B68B2FBF3F3FB60FB689BB21A46BF
:101230004FF6F07313403B61FB685B089BB203F011
:1012400007033A6913433B6107E03B685A087B692F
:101250001A443B68B2FBF3F33B617B683A69DA609E
:1012600000BF1837BD4680BD00100140001401408A
:1012700080B584B000AF78600023FB607B681B689A
:1012800001211846FFF7DCFE7B681B79012B04D196
:10129000FB6843F00403FB6010E07B681B79002BC4
:1012A00004D1FB6843F00803FB6007E07B681B790F
:1012B000022B03D1FB6843F00C03FB607B685B7B74
:1012C0001B031A46FB681343FB607B689B7B012B67
:1012D00004D1FB6843F48063FB600BE07B689B7B7D
:1012E000022B07D1FB6843F48063FB60FB6843F487
:1012F0000073FB607B681B68FA681A600023FB6060
:101300007B681B7B1B031A46FB681343FB607B68EF
:101310001B68FA685A600023FB607B68DB7B012B4B
:1013200004D1FB6843F40073FB6010E07B68DB7B57
:10133000022B04D1FB6843F48073FB6007E07B68F9
:10134000DB7B032B03D1FB6843F44073FB607B68BA
:101350001B68FA689A607B681A687B689B68194604
:101360001046FFF73DFF00BF1037BD4680BD80B47B
:1013700083B000AF78600B46FB70FB78012B06D181
:101380007B681B6843F001027B681A6005E07B689C
:101390001B6823F001027B681A6000BF0C37BD4652
:1013A0005DF8047B704780B483B000AF786039602B
:1013B0007B68DA693B681340002B01D0012300E011
:1013C000002318460C37BD465DF8047B704780B596
:1013D00086B000AFF860B9607A6000237B6131E0CD
:1013E00000BFFB681B6880211846FFF7DCFF03463F
:1013F000002BF6D0FB685B7B012B18D1BB683B61EF
:101400003B691B881A46FB681B68C2F308029A6294
:10141000FB689B7B002B06D1BB680133BB60BB68BC
:101420000133BB600BE0BB680133BB6007E0BB6806
:101430001A78FB681B689A62BB680133BB607B69E2
:1014400001337B617A697B689A42C9D300BFFB682C
:101450001B6840211846FFF7A6FF0346002BF6D075
:1014600000BF00BF1837BD4680BD000080B483B008
:1014700000AF03460A46FB711346BB71BB79012BD3
:101480004ED1FB791F2B0AD8504B1B68FA790121EA
:1014900001FA02F211464D4A0B4313608FE0FB79CB
:1014A0001F2B0FD9FB793F2B0CD8494B1B68FA79BE
:1014B00002F01F02012101FA02F21146444A0B43D5
:1014C00013607CE0FB793F2B0FD9FB795F2B0CD8A5
:1014D000404B1B68FA7902F03F02012101FA02F247
:1014E00011463C4A0B43136069E0FB795F2B66D9D8
:1014F00097F90730002B62DB374B1868FA79374BC6
:10150000A3FB021399090B465B000B445B01D31A42
:10151000DBB21A46012393402F4A034313604EE087
:10152000FB791F2B0AD82E4B1B68FA79012101FA8F
:1015300002F211462A4A0B43136040E0FB791F2B4D
:101540000FD9FB793F2B0CD8264B1B68FA7902F098
:101550001F02012101FA02F21146224A0B431360D5
:101560002DE0FB793F2B0FD9FB795F2B0CD81E4B5D
:101570001B68FA7902F03F02012101FA02F21146DA
:10158000194A0B4313601AE0FB795F2B17D997F9BF
:101590000730002B13DB154B1868FA790F4BA3FBB0
:1015A000021399090B465B000B445B01D31ADBB2B3
:1015B0001A46012393400D4A03431360FFE700BF1F
:1015C0000C37BD465DF8047B704700BF00E100E0CA
:1015D00004E100E008E100E00CE100E0ABAAAAAA07
:1015E00080E100E084E100E088E100E08CE100E0DF
:1015F00080B487B000AFF860B9607A60FB6893F898
:101600002130FB75FB7D012B11D0FB687A68DA6114
:10161000FB68BA685A61FB68012283F82120FB68E5
:101620001B681A68FB681B6842F020021A60FB7D89
:1016300018461C37BD465DF8047B704780B586B000
:1016400000AF78607B681B68DB6903F040037B6157
:101650007B681B681B6803F040033B617B69002BC0
:1016600021D03B69002B1ED07B6893F82030022BE1
:1016700019D17B689B69002B15D17B681B681A6A9E
:101680007B681B6842F040021A627B68002283F884
:1016900020207B6800221A617B6800229A61002169
:1016A0007868FEF72DFF7B681B68DB6903F0800319
:1016B0007B617B681B681B6803F080033B617B696F
:1016C000002B55D03B69002B52D07B6893F820301B
:1016D000022B4DD17B689B69002B3DD07B685B7BE7
:1016E000012B29D17B681B69FB60FB681B881A46AC
:1016F0007B681B68C2F308029A627B689B7B002BA5
:101700000FD17B681B695A1C7B681A617B681B6957
:101710005A1C7B681A617B689B699A1E7B689A6178
:101720001AE07B681B695A1C7B681A617B689B699D
:101730005A1E7B689A610FE07B681B691A787B6888
:101740001B689A627B681B695A1C7B681A617B68FC
:101750009B695A1E7B689A617B689B69002B07D145
:101760007B681B681A687B681B6822F080021A601D
:101770007B681B68DB6903F020037B617B681B6867
:101780001B6803F020033B617B69002B73D03B692E
:10179000002B70D07B6893F82130012B6BD17B68D4
:1017A000DB69002B53D07B685B7B012B2FD17B68DF
:1017B0009B7B002B19D17B681B685B6A9AB27B68A4
:1017C0005B69C2F3080292B21A807B685B695A1C9B
:1017D0007B685A617B685B695A1C7B685A617B68CD
:1017E000DB699A1E7B68DA6131E07B681B685A6AA4
:1017F0007B685B69D2B21A707B685B695A1C7B6834
:101800005A617B68DB695A1E7B68DA611FE07B687E
:101810009B7B002B07D17B681B685A6A7B685B69DE
:10182000D2B21A7009E07B681B685B6ADAB27B6827
:101830005B6902F07F02D2B21A707B685B695A1C46
:101840007B685A617B68DB695A1E7B68DA617B685A
:10185000DB69002B0FD17B681B681A687B681B68EB
:1018600022F020021A607B68002283F821200121E7
:101870007868FEF745FE7B681B68DB6903F48063CC
:101880007B617B681B689B6803F400733B617B6929
:10189000002B0ED03B69002B0BD07B681B681A6AAB
:1018A0007B681B6842F400721A6203217868FEF7B5
:1018B00027FE7B681B68DB6903F010037B617B6894
:1018C0001B681B6803F010033B617B69002B0ED083
:1018D0003B69002B0BD07B681B681A6A7B681B680E
:1018E00042F010021A6202217868FEF709FE7B6856
:1018F0001B68DB6903F003037B617B681B681B6863
:1019000003F005033B617B69002B06D03B69002B8C
:1019100003D007217868FEF7F3FD7B681B689B689E
:1019200003F001033B613B69002B1ED07B681B6801
:10193000DB697B617B6903F00203002B03D0052187
:101940007868FEF7DDFD7B6903F00403002B03D00C
:1019500006217868FEF7D4FD7B6903F00803002BAD
:1019600003D007217868FEF7CBFD00BF1837BD46CE
:1019700080BD0000DFF834D00D480E490E4A002328
:1019800002E0D458C4500433C4188C42F9D30B4A33
:101990000B4C002301E013600432A242FBD3AFF3EF
:1019A000008000F011F8FEF715FD704700000820D8
:1019B0000000002084000020F02A0008840000209D
:1019C00090090020FEE7000070B50D4D0D4C641B22
:1019D000A4100026A64209D10B4D0C4C00F0DCFFF0
:1019E000641BA4100026A64205D170BD55F8043B27
:1019F00098470136EEE755F8043B98470136F2E781
:101A0000E82A0008E82A0008E82A0008EC2A00086A
:101A10000A44914200F1FF3300D1704710B511F82C
:101A2000014B03F8014F9142F9D110BD0244034626
:101A3000934200D1704703F8011BF9E70FB40A4B3A
:101A400013B51C6824B1A36913B9204600F022FA2B
:101A500005AB049AA1680193204600F017FC02B080
:101A6000BDE8104004B070472000002070B50E465D
:101A7000054618B183690BB900F00CFAAB69AC6884
:101A800013B9284600F006FA234B9C4217D16C6824
:101A9000A3891B071DD52369DBB1013EA36816F896
:101AA000011F013BA360E9B9002B2EDA22460A216F
:101AB000284600F03FF8013011D00A2011E0174B02
:101AC0009C4201D1AC68E3E7154B9C4208BFEC682F
:101AD000DEE72146284600F07FF80028DDD04FF0F1
:101AE000FF3070BD002B04DAA2699A4206DC0A2995
:101AF00004D023685A1C22601970CFE7224628467A
:101B000000F018F80130C9D1E9E723680A205A1C0F
:101B100022601870E5E700BF6C2A00088C2A0008D4
:101B20004C2A0008024B01461868FFF79FBF00BF10
:101B300020000020F8B50E461446054618B183690A
:101B40000BB900F0A7F9214B9C422BD16C68A3691B
:101B5000A360A3891A072FD523696BB32369206873
:101B6000C01A6369F6B28342374604DC2146284630
:101B700000F026F930BBA368013BA36023685A1C20
:101B800022601E7063690130834204D0A389DB07A1
:101B900006D50A2E04D12146284600F011F988B94D
:101BA0003846F8BD0A4B9C4201D1AC68CFE7094BDF
:101BB0009C4208BFEC68CAE72146284600F00CF8B2
:101BC0000028CBD04FF0FF37EAE700BF6C2A0008AF
:101BD0008C2A00084C2A0008324B70B51D68064656
:101BE0000C4625B1AB6913B9284600F053F92E4BCA
:101BF0009C420FD16C68A389B4F90C2019072CD42E
:101C0000DD0611D40923336042F04003A3814FF075
:101C1000FF303EE0254B9C4201D1AC68EBE7244B02
:101C20009C4208BFEC68E6E7580712D5616B41B1EA
:101C300004F14403994202D0304600F01DFA00231B
:101C40006363A38923F02403A381002363602369D2
:101C50002360A38943F00803A38123694BB9A389B7
:101C600003F42073B3F5007F03D02146304600F023
:101C7000C3F9A089B4F90C2010F001030AD00023A5
:101C8000A36063695B42A361236943B910F08000DC
:101C9000BAD170BD810758BF6369A360F4E7002023
:101CA000F7E700BF200000206C2A00088C2A0008FB
:101CB0004C2A00088A892DE9F041054610070C4698
:101CC00058D44B68002B05DC0B6C002B02DC002089
:101CD000BDE8F081E66A002EF9D0002312F48052AC
:101CE0002F68216A2B6032D0606DA3895A0705D511
:101CF0006368C01A636B0BB1236CC01A00230246E1
:101D0000E66A216A2846B047431CA38906D12968A0
:101D10001D292BD8294A0A41D60727D40022626000
:101D2000D9042269226004D5421C01D12B6803B971
:101D30006065616B2F600029C9D004F144039942AA
:101D400002D0284600F098F900206063C0E7012324
:101D50002846B047411CC8D12B68002BC5D01D2B8D
:101D600001D0162B01D12F60B1E7A38943F04003C6
:101D7000A381ADE70F69002FA9D093070E6808BFB4
:101D80004B690F6018BF0023A6EB07088B60B8F102
:101D9000000F9CDD216AA66A43463A462846B047B2
:101DA000002806DCA38943F04003A3814FF0FF30F5
:101DB0008EE70744A8EB0008E9E700BFFEFFBFDF9E
:101DC00038B50B6905460C46DBB118B183690BB910
:101DD00000F060F80C4B9C4209D16C68B4F90C30EF
:101DE0007BB121462846BDE83840FFF763BF074B6B
:101DF0009C4201D1AC68F1E7054B9C4208BFEC68FE
:101E0000ECE7002038BD00BF6C2A00088C2A0008CF
:101E10004C2A0008002310B50446C0E90033C0E98D
:101E20000433836081814366C2818361194608223D
:101E30005C30FFF7FBFD054B6362054BA362054B6E
:101E4000E362054B2462236310BD00BFF527000841
:101E5000172800084F28000873280008014900F0DF
:101E600085B800BFC11D000870B568234D1E5D43D5
:101E70000E4605F1740100F06BF9044640B10021F3
:101E8000C0E900160C30A06005F16802FFF7CEFD36
:101E9000204670BD836910B5044633BBC0E91233D8
:101EA0000365124B124A1B688262984204BF0123E9
:101EB000836100F01FF86060204600F01BF8A0600E
:101EC000204600F017F80022E06004216068FFF768
:101ED000A1FFA06801220921FFF79CFFE068022210
:101EE0001221FFF797FF0123A36110BD482A0008C4
:101EF0005D1E0008F8B51B4B1E68B369074613B991
:101F00003046FFF7C7FF4836D6E90134013B03D519
:101F10003368DBB13668F7E7B4F90C50A5B9124B5A
:101F20006566C4E90055C4E90335C4E90555A560F3
:101F30000822294604F15C00FFF778FDC4E90D553D
:101F4000C4E912552046F8BD6834DFE7042138465D
:101F5000FFF78AFF044630600028DBD10C233B608A
:101F6000F0E700BF482A00080100FFFF2DE9F84311
:101F70000646884600F148040027D4E90195B9F1E6
:101F8000010905D52468002CF7D13846BDE8F8834F
:101F9000AB89012B07D9B5F90E30013303D029469F
:101FA0003046C04707436835E9E770B50C46B1F9DC
:101FB0000E10002996B015461E460DDAA38913F0BF
:101FC000800F4FF000010CBF4FF4806340230020CE
:101FD00031602B6016B070BD6A4600F05FFC0028CF
:101FE000ECDB019901F47041A1F5005359425941CC
:101FF0004FF48063EBE700008B8973B59D070646BD
:102000000C4607D504F14703236023610123636174
:1020100002B070BD01AB6A46FFF7C7FF00990546E5
:10202000304600F095F848B9B4F90C309A05EFD471
:1020300023F0030343F00203A381E3E70D4BB362F4
:10204000A389206043F08003A381009B6361019B0F
:1020500020615BB1B4F90E10304600F031FC28B1BC
:10206000A38923F0030343F00103A381A3891D4344
:10207000A581CDE75D1E000837B5002944D051F891
:10208000043C0190002BA1F10404B8BFE41800F057
:1020900039FC1E4A0198136833B96360146003B0B9
:1020A000BDE8304000F02FBCA34208D92568611973
:1020B0008B4201BF19685B6849192160EDE71A4638
:1020C0005B680BB1A342FAD911685518A5420BD130
:1020D000246821445418A3421160E0D11C685B6855
:1020E00053600C441460DAE702D90C230360D6E78E
:1020F000256861198B4204BF19685B68636004BF7F
:10210000491921605460CAE703B030BD800900203E
:1021100070B50E4E0C463168054611B900F05AFBF9
:1021200030602146284600F055FB431C0AD0C41CF1
:1021300024F00304A04207D0211A284600F04AFBED
:10214000013001D14FF0FF34204670BD84090020DA
:102150002DE9F041CD1C25F0030508350C2D38BFC5
:102160000C25002D074601DBA94205D90C233B6055
:1021700000263046BDE8F0812E4E00F0C3FB3368E8
:102180001C4634BB29463846FFF7C2FF431C0446B1
:102190004DD134682646002E40D12368314638465A
:1021A00004EB030800F016FB80453AD123680335A1
:1021B000ED1A25F0030508350C2D38BF0C252946EE
:1021C0003846FFF7A5FF01302BD023682B4423604E
:1021D0000EE02268521B1ED40B2A16D96119A342A5
:1021E000256018BF5960636808BF316062514B6059
:1021F000384604F10B0600F086FB26F00706231D87
:10220000F21AB6D09B1BA350B3E76268A3420CBF7F
:1022100032605A60ECE723466468B2E73446766879
:10222000B9E70C233B60384600F06DFBA1E7256061
:10223000DEE700BF800900209368013B002B10B44B
:10224000936008DA9469A34201DB0A2903D15DF89F
:10225000044BFFF76FBC1368581C106019700846D8
:102260005DF8044B7047F8B506460F461446D5187E
:10227000AC4201D1002007E014F8011B3A46304679
:10228000FFF7DAFF431CF3D1F8BD00002DE9F04F52
:102290000D469DB014469846064618B183690BB9A1
:1022A000FFF7F8FD7B4B9D4261D17568AB891B0739
:1022B00067D52B69002B64D00023099320238DF868
:1022C0002930CDF80C803023DFF8CC818DF82A300E
:1022D0004FF0010923469A4613F8012B0AB1252A2B
:1022E000F9D1BAEB040B0BD05B46224629463046A7
:1022F000FFF7B9FF013000F0BF80099A5A440992F4
:102300009AF80030002B00F0B78000234FF0FF3226
:10231000CDE905230AF1010A049307938DF85330A0
:102320001A935446052214F8011B5B48FDF770FF11
:10233000049A002830D1D00644BF20238DF85330B2
:10234000110744BF2B238DF853309AF800302A2B05
:102350002AD0079A544600204FF00A0C214611F863
:10236000013B303B092B62D958B3079229E04B4B14
:102370009D4201D1B56899E7494B9D4208BFF56878
:1023800094E729463046FFF727FC002894D04FF009
:10239000FF301DB0BDE8F08FA0EB080309FA03F38E
:1023A00013430493A246BCE7039B191D1B680391CA
:1023B000002BBBBF5B4242F0020207930793B8BFFA
:1023C000049223782E2B0CD163782A2B34D1039BD3
:1023D0001A1D1B680392002BB8BF4FF0FF33023465
:1023E0000593DFF8CCA0217803225046FDF710FFBB
:1023F00038B1049BA0EB0A00402282401343013411
:10240000049314F8011B27488DF828100622FDF7C5
:10241000FFFE002835D0244B1BBB039B073323F062
:10242000070308330393099B3B44099352E70CFBD2
:1024300002320C46012091E700230134059319462E
:102440004FF00A0C204610F8012B303A092A03D924
:10245000002BC6D00591C4E70CFB012104460123E3
:10246000F0E703AB00932A46104B04A93046AFF3C4
:102470000080421C0746D6D1AB895B0687D40998F9
:1024800087E703AB00932A46084B04A9304600F0C7
:102490007FF8EEE76C2A0008AC2A00088C2A0008B6
:1024A0004C2A0008B62A0008000000006722000835
:1024B000B22A00082DE9F047164699468A680B694A
:1024C000DDF820809342B8BF1346336091F8432073
:1024D00007460C460AB1013333602368990642BFB0
:1024E000336802333360256815F0060506D104F120
:1024F000190AE36832689B1AAB4226DC94F8432041
:10250000131E226818BF012392062BD404F1430244
:1025100049463846C04701301ED02368226903F07F
:102520000603042B02BFE5683368ED1AA3680CBFED
:1025300025EAE57500259342C4BF9B1AED180026D5
:102540001A34B5421AD1002008E001235246494608
:102550003846C047013003D14FF0FF30BDE8F08767
:102560000135C6E7E1185A1C302081F843002244A7
:1025700094F8451082F843100233C7E7012322463E
:1025800049463846C0470130E6D00136D9E7000059
:102590002DE9FF470F7E0C9D782F914680460C4613
:1025A0009A4601F1430207D8622F0AD8002F00F0A3
:1025B000D480582F00F0C08004F1420584F84270A6
:1025C0003AE0A7F16303152BF6D801A151F823F0E7
:1025D000292600083D260008B9250008B92500086D
:1025E000B9250008B92500083D260008B9250008CE
:1025F000B9250008B9250008B925000841270008B9
:1026000069260008FB260008B9250008B92500083E
:1026100063270008B925000869260008B9250008C5
:10262000B9250008032700082B681A1D1B682A60BB
:1026300004F1420584F8423001239FE020682B68B2
:10264000070603F10401296001D51E6803E0460670
:10265000FBD5B3F90060002E03DA2D23764284F80F
:1026600043305A480A2312E02B682068191D29605C
:10267000050601D51E6802E04106FBD51E885348B9
:102680006F2F0CBF08230A23002184F843106568CC
:10269000A560002DA2BF216821F0040121600EB9C0
:1026A000002D4BD01546B6FBF3F103FB1167C75D58
:1026B00005F8017D3746BB420E46F4D9082B0BD1F5
:1026C0002368DE0708D5236961689942DEBF30239D
:1026D00005F8013C05F1FF35521B2261CDF800A041
:1026E0004B4603AA21464046FFF7E4FE01304AD19B
:1026F0004FF0FF3004B0BDE8F087236843F02003BB
:1027000023603348782784F84570236829681F06BA
:1027100051F8046B02D45F0648BFB6B2DF0748BF6A
:1027200043F02003296048BF23601EB9236823F0CB
:10273000200323601023A7E72448E4E71546BDE7FC
:102740002B6826686169181D286035061B6801D54D
:10275000196002E07006FBD519800023236115463D
:10276000BCE72B681A1D2A601D6862680021284694
:10277000FDF74EFD08B1401B6060636823610023D4
:1027800084F84330AAE723692A4649464046D047A1
:102790000130ADD023689B0713D4E068039B9842B7
:1027A000B8BF1846A6E70123324649464046D047FF
:1027B00001309DD00135E36803995B1AAB42F2DC2E
:1027C000EBE7002504F11906F5E700BFBD2A000874
:1027D000CE2A000838B5064D0023044608462B6073
:1027E00000F0CCF8431C02D12B6803B1236038BD44
:1027F0008809002010B50C46B1F90E1000F084F8DD
:102800000028ABBF636DA3891B1823F48053ACBFB2
:102810006365A38110BD2DE9F0411F468B89DB055F
:1028200005460C46164605D5B1F90E1002230022C6
:1028300000F056F8A389B4F90E1023F48053A38155
:1028400032463B462846BDE8F041FEF74FB810B58A
:102850000C46B1F90E1000F043F8431CA38915BFD4
:10286000606523F4805343F48053A38118BFA38190
:1028700010BDB1F90E1000F001B8000038B5064DDA
:102880000023044608462B6000F050F8431C02D198
:102890002B6803B1236038BD8809002038B5074D87
:1028A00000230446084611462B6000F047F8431CFD
:1028B00002D12B6803B1236038BD00BF8809002016
:1028C00038B5064D0023044608462B6000F03EF85C
:1028D000431C02D12B6803B1236038BD8809002056
:1028E00038B5074D04460846114600222A601A46AC
:1028F00000F034F8431C02D12B6803B1236038BDCB
:10290000880900207047704738B5074D04460846CF
:10291000114600222A601A4600F028F8431C02D112
:102920002B6803B1236038BD88090020024B582270
:102930001A604FF0FF30704788090020024B582280
:102940001A604FF0FF30704788090020024B582270
:102950001A600020704700BF88090020024B5822EF
:102960001A604FF0FF30704788090020024B582250
:102970001A604FF0FF30704788090020044A05496B
:102980001368002B08BF0B461844106018467047A8
:102990008C09002090090020F8B500BFF8BC08BCE5
:1029A0009E467047F8B500BFF8BC08BC9E4670470D
:1029B000686968696869686968696869313233009B
:1029C00048656C6C6F20486F772061726520796F65
:1029D00075203F00546F646179206973204D6F6EDC
:1029E00064617920210000004170706C696361743A
:1029F000696F6E2069732072756E6E696E67000074
:102A00005472616E736D6974746564203A20257325
:102A10000A00000052656365697665642020202005
:102A20003A2025730A0000005465726D696E616C6E
:102A300000000000000000000000545452205245E5
:102A4000474745530000000024000020000000001C
:102A50000000000000000000000000000000000076
:102A60000000000000000000000000000000000066
:102A70000000000000000000000000000000000056
:102A80000000000000000000000000000000000046
:102A90000000000000000000000000000000000036
:102AA000000000000000000000000000232D302B7B
:102AB0002000686C4C00656667454647003031323F
:102AC0003334353637383941424344454600303196
:102AD00032333435363738396162636465660000F5
:082AE0004CFEFF7F0100000025
:042AE800D50200080B
:042AEC00B10200082B
:102AF000B0290008C0290008D429000802000400F9
:102B000008001000400080000001000202040810CC
:102B100024000020000000006C2A00088C2A000815
:102B20004C2A000800000000000000000000000027
:102B30000000000000000000000000000000000095
:102B40000000000000000000000000000000000085
:102B50000000000000000000000000000000000075
:102B60000000000000000000000000000000000065
:042B70000000000061
:040000050800197561
:00000001FF
