:020000040800F2
:1000000000000820D90E0008290F0008290F000859
:10001000290F0008290F0008290F00080000000020
:10002000000000000000000000000000290F000890
:10003000290F000800000000290F0008290F000800
:10004000290F0008290F0008290F0008290F0008B0
:10005000290F0008290F0008290F0008290F0008A0
:10006000290F0008290F0008290F0008290F000890
:10007000290F0008290F0008290F0008290F000880
:10008000290F0008290F0008290F0008290F000870
:10009000290F0008290F0008290F0008290F000860
:1000A000290F0008290F0008290F0008290F000850
:1000B000290F0008290F0008290F0008290F000840
:1000C000290F0008290F0008290F0008290F000830
:1000D000290F0008290F0008290F0008290F000820
:1000E000290F0008290F0008290F0008290F000810
:1000F000290F0008290F0008290F0008290F000800
:10010000290F0008290F0008290F0008290F0008EF
:10011000290F0008290F0008290F0008290F0008DF
:10012000290F0008290F0008290F0008290F0008CF
:10013000290F0008290F0008290F0008290F0008BF
:10014000290F0008290F0008290F0008290F0008AF
:10015000290F0008290F0008290F0008290F00089F
:10016000290F0008290F0008290F0008290F00088F
:10017000290F0008290F0008290F000800000000BF
:10018000290F0008290F0008290F0008290F00086F
:10019000290F0008290F0008290F0008290F00085F
:1001A000290F0008290F0008290F0008290F00084F
:1001B000290F0008290F0008290F0008290F00083F
:1001C000290F0008290F000800000000290F00086F
:1001D000290F0008290F0008290F0008290F00081F
:1001E000290F0008290F0008290F0008290F00080F
:0801F000290F0008290F000887
:1001F800034613F8012B002AFBD1181A013870475F
:1002080010B5054C237833B9044B13B10448AFF348
:1002180000800123237010BD14040020000000009A
:10022800740F000808B5034B1BB103490348AFF32B
:10023800008008BD0000000018040020740F0008AA
:1002480080B483B000AF00237B6002E07B68013399
:100258007B607B68044A9342F8D900BF00BF0C3723
:10026800BD465DF8047B70473F0D030080B584B040
:1002780000AF0E4B7B6002237B7200233B7301238C
:10028800FB7207237B730223BB7205233B723B1D62
:10029800184600F087F906233B723B1D184600F00C
:1002A80081F900BF1037BD4680BD00BF000C024079
:1002B80080B500AF0D4B0E4A1A600C4B4FF4E1327B
:1002C8009A600A4B0022DA73084B00221A71074B16
:1002D80000221A73054B00225A73044B00229A73AA
:1002E800024800F0F7FC00BF80BD00BF30040020CA
:1002F8000044004080B584B000AF094B7B600D23FB
:100308003B7200237B720023BB720023FB723B1DF0
:10031800184600F047F900BF1037BD4680BD00BF42
:100328000008024080B500AFFFF7E4FFFFF79EFF2B
:10033800FFF7BEFF01210B4800F04BFD00BF0D2168
:10034800094800F0DDFA0346002BF8D0FFF778FFE4
:100358000648FFF74DFF03461A460449044800F0D3
:1003680068FDEBE700440040000802400000002060
:100378003004002080B483B000AF78600B46FB7077
:10038800FB78012B78D17B687A4A934206D17A4B65
:100398001B6B794A43F001031363E5E07B68774AF6
:1003A800934206D1744B1B6B734A43F002031363E9
:1003B800DAE07B68724A934206D16F4B1B6B6E4A38
:1003C80043F004031363CFE07B686E4A934206D17F
:1003D800694B1B6B684A43F008031363C4E07B68EE
:1003E800694A934206D1644B1B6B634A43F010037E
:1003F8001363B9E07B68654A934206D15E4B1B6B79
:100408005D4A43F020031363AEE07B68604A934281
:1004180006D1594B1B6B584A43F040031363A3E0C2
:100428007B685C4A934206D1534B1B6B524A43F09C
:100438008003136398E07B68574A934206D14E4B7A
:100448001B6B4D4A43F4807313638DE07B68534AFA
:10045800934206D1484B1B6B474A43F4007313631E
:1004680082E07B684E4A93427ED1434B1B6B424AE3
:1004780043F48063136377E07B683E4A934206D176
:100488003D4B1B6B3C4A23F0010313636CE07B6814
:100498003A4A934206D1384B1B6B374A23F0020382
:1004A800136361E07B68364A934206D1324B1B6B7B
:1004B800314A23F00403136356E07B68314A9342C0
:1004C80006D12D4B1B6B2C4A23F0080313634BE01A
:1004D8007B682D4A934206D1274B1B6B264A23F093
:1004E8001003136340E07B68284A934206D1224BED
:1004F8001B6B214A23F02003136335E07B68244AF1
:10050800934206D11C4B1B6B1B4A23F04003136319
:100518002AE07B681F4A934206D1174B1B6B164A89
:1005280023F0800313631FE07B681B4A934206D1C4
:10053800114B1B6B104A23F48073136314E07B6820
:10054800164A934206D10C4B1B6B0B4A23F40073DB
:10055800136309E07B68124A934205D1064B1B6B73
:10056800054A23F48063136300BF0C37BD465DF86A
:10057800047B70470000024000380240000402403B
:1005880000080240000C0240001002400014024023
:1005980000180240001C02400020024000240240D3
:1005A8000028024080B586B000AF786000237B61E8
:1005B8007B681B6801211846FFF7DCFE7B685B79C6
:1005C800032B20D87B685B791A467B681B795B0014
:1005D80002FA03F37B617B681B681A687B681B79E6
:1005E8005B00032101FA03F3DB4319467B681B68B0
:1005F8000A401A607B681B6819687B681B687A69FF
:100608000A431A60DDE07B685B79042B17D1524BF3
:10061800DB687A681279114601228A4011464E4AEF
:100628000B43D3604C4B9B687A68127911460122C0
:100638008A40D2431146484A0B40936035E07B68B4
:100648005B79052B17D1444B9B687A681279114660
:1006580001228A401146404A0B4393603E4BDB68B7
:100668007A681279114601228A40D24311463A4AE1
:100678000B40D36019E07B685B79062B15D1364BAC
:100688009B687A681279114601228A401146324ADB
:100698000B439360304BDB687A681279114601226C
:1006A8008A4011462C4A0B43D3607B681B799B0810
:1006B800FB747B681B7903F00303BB747B681B68BE
:1006C800264A934260D07B681B68254A934240D0F3
:1006D8007B681B68234A934239D07B681B68224A8F
:1006E800934232D07B681B68204A93422BD07B68A8
:1006F8001B681F4A934224D07B681B681D4A93429B
:100708001DD07B681B681C4A934216D07B681B6807
:100718001A4A93420FD07B681B68194A934208D043
:100728007B681B68174A934201D10A232DE00023F6
:100738002BE0092329E0082327E0072325E00623E7
:1007480023E0052321E004231FE003231DE0022307
:100758001BE0012319E000BF003C014000000240FB
:100768000004024000080240000C02400010024051
:100778000014024000180240001C02400020024001
:10078800002402400028024000237B74594B5B6C14
:10079800584A43F4804353647A7CBB7C9B0002FA3A
:1007A80003F1554AFB7C023342F82310534B1B6874
:1007B8007A681279114601228A4011464F4A0B4342
:1007C80013607B689B791A467B681B795B0002FA89
:1007D80003F37B617B681B689A687B681B795B0005
:1007E800032101FA03F3DB4319467B681B680A40BF
:1007F8009A607B681B6899687B681B687A690A43FA
:100808009A607B68DB791A467B681B795B0002FA81
:1008180003F37B617B681B68DA687B681B795B0084
:10082800032101FA03F3DB4319467B681B680A407E
:10083800DA607B681B68D9687B681B687A690A4339
:10084800DA607B681B7A1A467B681B7902FA03F325
:100858007B617B681B685A687B681B791946012392
:100868008B40DB4319467B681B680A405A607B68EB
:100878001B6859687B681B687A690A435A607B68F9
:100888005B79022B31D17B681B79DB083B747B6871
:100898001B7903F00703FB737B681B683A7C0832FB
:1008A80053F82210FB7B9B000F2202FA03F3DB4371
:1008B80018467B681B683A7C0140083243F82210CE
:1008C8007B681B683A7C083253F822107B685B7A95
:1008D8001A46FB7B9B0002FA03F318467B681B68E9
:1008E8003A7C0143083243F8221000BF1837BD464E
:1008F80080BD00BF0038024000380140003C014084
:1009080080B485B000AF78600B46FB707B681A69CD
:10091800FB7822FA03F3DBB203F00103FB73FB7BE2
:1009280018461437BD465DF8047B704780B483B021
:1009380000AF00237B607B6818460C37BD465DF826
:10094800047B704780B584B000AF254B9B689B083B
:10095800DBB203F003033B723B7A002B02D1214B3D
:10096800FB600BE03B7A012B02D11F4BFB6005E0DB
:100978003B7A022B02D1FFF7D9FFF860184B9B682E
:100988001B09DBB203F00F03FB71FB79072B02D8BD
:1009980001237B8105E0FB79083B144A32F81330C8
:1009A8007B810F4B9B689B0ADBB203F00703FB714B
:1009B800FB79032B02D801237B7204E0FB79043B0B
:1009C8000B4AD35C7B727B89FA68B2FBF3F27B7AC1
:1009D800B2FBF3F33B603B6818461037BD4680BD59
:1009E800003802400024F40000127A0000040020BD
:1009F8001004002080B584B000AF254B9B689B088D
:100A0800DBB203F003033B723B7A002B02D1214B8C
:100A1800FB600BE03B7A012B02D11F4BFB6005E02A
:100A28003B7A022B02D1FFF781FFF860184B9B68D5
:100A38001B09DBB203F00F03FB71FB79072B02D80C
:100A480001237B8105E0FB79083B144A32F8133017
:100A58007B810F4B9B685B0BDBB203F00703FB71D9
:100A6800FB79032B02D801237B7204E0FB79043B5A
:100A78000B4AD35C7B727B89FA68B2FBF3F27B7A10
:100A8800B2FBF3F33B603B6818461037BD4680BDA8
:100A9800003802400024F40000127A00000400200C
:100AA8001004002080B483B000AF78600B46FB7060
:100AB800FB78012B57D17B68594A934206D1594B91
:100AC8005B6C584A43F010035364A3E07B68564AB2
:100AD800934206D1534B1B6C524A43F400331364C0
:100AE80098E07B68514A934206D14E4B1B6C4D4AA5
:100AF80043F4802313648DE07B684D4A934206D10A
:100B0800484B1B6C474A43F40023136482E07B681C
:100B1800484A934206D1434B1B6C424A43F4801324
:100B2800136477E07B68444A934206D13D4B5B6C83
:100B38003C4A43F0200353646CE07B683F4A93428D
:100B480006D1384B1B6C374A43F08043136461E08D
:100B58007B683B4A93425DD1324B1B6C314A43F070
:100B68000043136456E07B682D4A934206D12D4B0F
:100B78005B6C2C4A23F0100353644BE07B682A4AD1
:100B8800934206D1274B1B6C264A23F40033136487
:100B980040E07B68254A934206D1224B1B6C214AD0
:100BA80023F48023136435E07B68214A934206D1FD
:100BB8001C4B1B6C1B4A23F4002313642AE07B683C
:100BC8001C4A934206D1174B1B6C164A23F4801318
:100BD80013641FE07B68184A934206D1114B5B6C83
:100BE800104A23F02003536414E07B68134A9342AD
:100BF80006D10C4B1B6C0B4A23F08043136409E0AD
:100C08007B680F4A934205D1064B1B6C054A23F0BB
:100C18000043136400BF0C37BD465DF8047B704782
:100C280000100140003802400044004000480040E5
:100C3800004C004000500040001401400078004083
:100C4800007C004080B586B000AF78603960002332
:100C58003B617B681D4A934203D07B681C4A9342E0
:100C680003D1FFF7C7FE786102E0FFF76BFE7861FA
:100C78007B681B6803F40043002B18D07B695A007B
:100C88003B685B081A443B68B2FBF3F3FB60FB6804
:100C98009BB21A464FF6F07313403B61FB685B0842
:100CA8009BB203F007033A6913433B6107E03B68D3
:100CB8005A087B691A443B68B2FBF3F33B617B68D3
:100CC8003A69DA6000BF1837BD4680BD00100140A0
:100CD8000014014080B584B000AF78600023FB6049
:100CE8007B681B6801211846FFF7DCFE7B681B79CF
:100CF800012B04D1FB6843F00403FB6010E07B6820
:100D08001B79002B04D1FB6843F00803FB6007E064
:100D18007B681B79022B03D1FB6843F00C03FB6053
:100D28007B685B7B1B031A46FB681343FB607B688D
:100D38009B7B012B04D1FB6843F48063FB600BE0D1
:100D48007B689B7B022B07D1FB6843F48063FB60C5
:100D5800FB6843F40073FB607B681B68FA681A60E1
:100D68000023FB607B681B7B1B031A46FB6813434D
:100D7800FB607B681B68FA685A600023FB607B682D
:100D8800DB7B012B04D1FB6843F40073FB6010E0AC
:100D98007B68DB7B022B04D1FB6843F48073FB6028
:100DA80007E07B68DB7B032B03D1FB6843F44073CC
:100DB800FB607B681B68FA689A607B681A687B68C6
:100DC8009B6819461046FFF73DFF00BF1037BD4628
:100DD80080BD80B483B000AF78600B46FB70FB78B1
:100DE800012B06D17B681B6843F001027B681A60FF
:100DF80005E07B681B6823F001027B681A6000BF6E
:100E08000C37BD465DF8047B704780B483B000AFF3
:100E1800786039607B68DA693B681340002B01D041
:100E2800012300E0002318460C37BD465DF8047B1B
:100E3800704780B586B000AFF860B9607A6000236B
:100E48007B6131E000BFFB681B6880211846FFF713
:100E5800DCFF0346002BF6D0FB685B7B012B18D127
:100E6800BB683B613B691B881A46FB681B68C2F379
:100E780008029A62FB689B7B002B06D1BB68013392
:100E8800BB60BB680133BB600BE0BB680133BB6070
:100E980007E0BB681A78FB681B689A62BB68013375
:100EA800BB607B6901337B617A697B689A42C9D3ED
:100EB80000BFFB681B6840211846FFF7A6FF0346E2
:100EC800002BF6D000BF00BF1837BD4680BD00001C
:100ED800DFF834D00D480E490E4A002302E0D458FA
:100EE800C4500433C4188C42F9D30B4A0B4C00236A
:100EF80001E013600432A242FBD3AFF3008000F09C
:100F080011F8FFF70FFA70470000082000000020D2
:100F180014040020940F0008140400205404002036
:100F2800FEE7000070B50D4D0D4C641BA4100026A3
:100F3800A64209D10B4D0C4C00F018F8641BA41004
:100F48000026A64205D170BD55F8043B98470136E6
:100F5800EEE755F8043B98470136F2E78C0F000896
:100F68008C0F00088C0F0008900F0008F8B500BF20
:100F7800F8BC08BC9E467047F8B500BFF8BC08BC72
:040F88009E467047CA
:040F8C002D0200082A
:040F9000090200084A
:100F940055534152542054782074657374696E67B4
:100FA4002E2E2E2E2E2E2E2E2E2E2E0A0D0000002C
:100FB400000000000000000000000000000000002D
:100FC400000000000000000000000000000000001D
:100FD400000000000000000000000000000000000D
:100FE40000000000000000000000000000000000FD
:101394000200040008001000400080000001000268
:0413A4000204081027
:0400000508000ED908
:00000001FF
