:020000040800F2
:100000000000082069160008B9160008B916000893
:10001000B9160008B9160008B9160008000000005B
:10002000000000000000000000000000B9160008F9
:10003000B916000800000000B9160008B91600083B
:10004000B9160008B9160008B9160008B916000854
:10005000B9160008B9160008B9160008B916000844
:10006000B9160008B9160008B9160008B916000834
:10007000B9160008B9160008B9160008B916000824
:10008000B9160008B9160008B9160008B916000814
:10009000B9160008B9160008B9160008B916000804
:1000A000B9160008B9160008B9160008B9160008F4
:1000B000B9160008B9160008B9160008B9160008E4
:1000C000B91600083103000845030008B9160008F6
:1000D000B9160008B9160008B9160008B9160008C4
:1000E000B9160008B9160008B9160008B9160008B4
:1000F000B9160008B9160008B9160008B9160008A4
:10010000B9160008B9160008B9160008B916000893
:10011000B9160008B9160008B9160008B916000883
:10012000B9160008B9160008B9160008B916000873
:10013000B9160008B9160008B9160008B916000863
:10014000B9160008B9160008B9160008B916000853
:10015000B9160008B9160008B9160008B916000843
:10016000B9160008B9160008B9160008B916000833
:10017000B9160008B9160008B916000800000000FA
:10018000B9160008B9160008B9160008B916000813
:10019000B9160008B9160008B9160008B916000803
:1001A000B9160008B9160008B9160008B9160008F3
:1001B000B9160008B9160008B9160008B9160008E3
:1001C000B9160008B916000800000000B9160008AA
:1001D000B9160008B9160008B9160008B9160008C3
:1001E000B9160008B9160008B9160008B9160008B3
:0801F000B9160008B916000859
:1001F800034613F8012B002AFBD1181A013870475F
:1002080010B5054C237833B9044B13B10448AFF348
:1002180000800123237010BDD800002000000000DA
:10022800C020000808B5034B1BB103490348AFF3CE
:10023800008008BD00000000DC000020C02000088D
:1002480080B584B000AF0E4B7B6002237B72012324
:100258003B730123FB7204237B730223BB720123CC
:100268003B723B1D184600F0CFFB00233B723B1D41
:10027800184600F0C9FB00BF1037BD4680BD00BF5F
:100288000014024080B500AF064B074A1A60054BC0
:1002980068221A72034B01225A60024800F0AEFE2F
:1002A80000BF80BDF40000200058004080B584B035
:1002B80000AF094B7B600D233B7200237B72002348
:1002C800BB720023FB723B1D184600F09DFB00BF6C
:1002D8001037BD4680BD00BF0008024080B582B01F
:1002E80002AF02230093002300220021002000F027
:1002F80017FA0B4801F074FAFFF7D8FFFFF7A0FFD1
:10030800FFF7C0FF0121212000F0F2FE012105487E
:1003180000F084FD0121034800F034FDFEE700BF32
:10032800D82000080058004080B500AF024801F00E
:1003380016F800BF80BD00BFF400002080B500AFF4
:10034800024801F01FF900BF80BD00BFF400002083
:1003580090B583B000AF78600B46FB70FB78042B38
:1003680023D1204B1B78512B0BD17B681C681E486E
:10037800FFF73EFF0346DBB21946204600F07AFF3E
:100388002CE0184B1B78522B28D17B681A68174B26
:100398001B78591CC8B2154908701946124B5B5C8A
:1003A8001946104600F066FF18E0FB78052B09D1C6
:1003B8007B681B68184600F06CFF03461A46094B19
:1003C8001A700BE0FB78022B08D0FB78032B05D1C1
:1003D800044BFF221A70054B00221A7000BF0C371D
:1003E800BD4690BD1C010020000000201D0100201A
:1003F80080B582B000AF264B3B60A8220021386848
:1004080001F08AF93B6803221A613B6803225A61AA
:100418003B68204A9A613B681F4ADA613B684FF49F
:1004280080621A623B6800229A623B6800225A6224
:100438003B680022DA623B68164A1A663B68174A2C
:100448005A663B6810229A663B6800221A673B6826
:100458000022DA663B6800225A67BFF35F8F0023E9
:100468007B600CE07B68C3F10F030D4AD15C3A68EE
:100478007B6813440A461A707B6801337B607B688B
:100488000F2BEFD9BFF35F8F00BF0837BD4680BD84
:1004980020010020F0200008C8010020C805002025
:1004A800FC20000880B58AB000AFF860B9607A60B7
:1004B80000233B62FB68DB68FB61FB681B69BB616F
:1004C800BA69FB699A4205D9BA69FB69D31A013B33
:1004D8007B6207E0FB689A68B969FB69CB1A134429
:1004E800013B7B62FB689A68FB69D31A7A6A93427C
:1004F80028BF13467B627A6A7B68934228BF1346FB
:100508007B62FB685A68FB6913447B617A6AB96845
:10051800786901F0F3F83A6A7B6A13443B62BA6877
:100528007B6A1344BB607A687B6AD31A7B60FA697A
:100538007B6A1344FB61FB689B68FA699A4201D1A4
:100548000023FB61BFF35F8FFB68FA69DA607B68A1
:10055800002BB2D13B6A18462837BD4680BD80B50E
:1005680088B000AFF860B9607A60FB68DB68FB614F
:10057800FB689A68FB69D31ABB61BA697B689A42BF
:1005880011D9FB685A68FB6913443B617A68B968FA
:10059800386901F0B3F8BFF35F8FFA697B681A44D2
:1005A800FB68DA601FE0BB697B61FB685A68FB691E
:1005B80013443B617A69B968386901F09FF87A6831
:1005C800BB69D31A7B61FB685B683B61BA68BB692E
:1005D80013447A691946386901F090F8BFF35F8FC0
:1005E800FB687A69DA6000BF2037BD4680BD80B4F9
:1005F80087B000AF78607B681B693B617B68DB680C
:10060800FB603A69FB689A4208D87B689A68FB687D
:10061800D21A3B691344013B7B6104E03A69FB68E9
:10062800D31A013B7B617B6918461C37BD465DF8D0
:10063800047B704780B588B000AFF860B9607A6015
:10064800BB68BB61FB685A1C13465B001344DB00A4
:100658001F4A13447B617B695B69022B29D0022BFB
:100668002ED8002B02D0012B13D029E07869FFF790
:10067800BEFF38613A697B689A4202D20023FB6167
:1006880021E07B68FB617A68B9697869FFF767FFE1
:1006980019E07869FFF7ABFF38617A683B699342E4
:1006A80028BF1346FB61FA69B9697869FFF757FFF4
:1006B80009E07A68B9697869FFF7F4FEF86102E041
:1006C8000023FB6100BFFB6918462037BD4680BD8B
:1006D8002001002080B588B000AFF860B9607A606A
:1006E8000E4BFB61FB691B78DBB2002B01D1FFF7D6
:1006F8007FFEEFF311834FF0200181F31188BB6176
:100708007A68B968F868FFF795FF7861BB6983F381
:1007180011887B6918462037BD4680BD200100201E
:1007280080B58AB000AFF860B9607A603B60204B52
:100738003B623B6A1B78DBB2002B01D1FFF758FE06
:100748001B4BFB61FB68022B2AD8EFF311834FF098
:10075800200181F31188BB61FB685A1C13465B00BA
:100768001344DB00FA6913447B61FB68002B0ED04D
:100778007B69BA681A607B697A685A607B693A68EB
:100788009A607B6900221A617B690022DA607B69C2
:100798003A6B5A61BB6983F3118800237B6202E0DC
:1007A8004FF0FF337B627B6A18462837BD4680BD11
:1007B8002001002080B584B000AFF860B9607A608D
:1007C8003B603A6879680020FFF784FF3B68184669
:1007D8001037BD4680BD000080B483B000AF78609C
:1007E8000B46FB70FB78012B78D17B687A4A9342E1
:1007F80006D17A4B1B6B794A43F001031363E5E09A
:100808007B68774A934206D1744B1B6B734A43F05B
:1008180002031363DAE07B68724A934206D16F4B96
:100828001B6B6E4A43F004031363CFE07B686E4A88
:10083800934206D1694B1B6B684A43F00803136364
:10084800C4E07B68694A934206D1644B1B6B634AD8
:1008580043F010031363B9E07B68654A934206D1FD
:100868005E4B1B6B5D4A43F020031363AEE07B686D
:10087800604A934206D1594B1B6B584A43F04003D8
:100888001363A3E07B685C4A934206D1534B1B6B0E
:10089800524A43F08003136398E07B68574A9342B7
:1008A80006D14E4B1B6B4D4A43F4807313638DE0A6
:1008B8007B68534A934206D1484B1B6B474A43F423
:1008C8000073136382E07B684E4A93427ED1434BA8
:1008D8001B6B424A43F48063136377E07B683E4AAC
:1008E800934206D13D4B1B6B3C4A23F00103136333
:1008F8006CE07B683A4A934206D1384B1B6B374A07
:1009080023F00203136361E07B68364A934206D101
:10091800324B1B6B314A23F00403136356E07B68A8
:10092800314A934206D12D4B1B6B2C4A23F0080306
:1009380013634BE07B682D4A934206D1274B1B6B10
:10094800264A23F01003136340E07B68284A934249
:1009580006D1224B1B6B214A23F02003136335E099
:100968007B68244A934206D11C4B1B6B1B4A23F01D
:10097800400313632AE07B681F4A934206D1174B52
:100988001B6B164A23F0800313631FE07B681B4A26
:10099800934206D1114B1B6B104A23F480731363E7
:1009A80014E07B68164A934206D10C4B1B6B0B4A2A
:1009B80023F40073136309E07B68124A934205D15C
:1009C800064B1B6B054A23F48063136300BF0C3787
:1009D800BD465DF8047B70470000024000380240C5
:1009E8000004024000080240000C024000100240CF
:1009F8000014024000180240001C0240002002407F
:100A0800002402400028024080B586B000AF78601C
:100A180000237B617B681B6801211846FFF7DCFE19
:100A28007B685B79032B20D87B685B791A467B68E7
:100A38001B795B0002FA03F37B617B681B681A6809
:100A48007B681B795B00032101FA03F3DB4319463A
:100A58007B681B680A401A607B681B6819687B689A
:100A68001B687A690A431A60DDE07B685B79042BAE
:100A780017D1524BDB687A681279114601228A40F5
:100A880011464E4A0B43D3604C4B9B687A681279E7
:100A9800114601228A40D2431146484A0B409360CE
:100AA80035E07B685B79052B17D1444B9B687A68E6
:100AB8001279114601228A401146404A0B4393603D
:100AC8003E4BDB687A681279114601228A40D2438C
:100AD80011463A4A0B40D36019E07B685B79062BD4
:100AE80015D1364B9B687A681279114601228A40E3
:100AF8001146324A0B439360304BDB687A681279AF
:100B0800114601228A4011462C4A0B43D3607B6868
:100B18001B799B08FB747B681B7903F00303BB7488
:100B28007B681B68264A934260D07B681B68254A0D
:100B3800934240D07B681B68234A934239D07B6834
:100B48001B68224A934232D07B681B68204A934232
:100B58002BD07B681B681F4A934224D07B681B6894
:100B68001D4A93421DD07B681B681C4A934216D0CD
:100B78007B681B681A4A93420FD07B681B68194A26
:100B8800934208D07B681B68174A934201D10A2315
:100B98002DE000232BE0092329E0082327E0072381
:100BA80025E0062323E0052321E004231FE0032397
:100BB8001DE002231BE0012319E000BF003C0140B7
:100BC800000002400004024000080240000C0240FD
:100BD800001002400014024000180240001C0240AD
:100BE80000200240002402400028024000237B74B9
:100BF800594B5B6C584A43F4804353647A7CBB7C02
:100C08009B0002FA03F1554AFB7C023342F8231099
:100C1800534B1B687A681279114601228A401146A3
:100C28004F4A0B4313607B689B791A467B681B7994
:100C38005B0002FA03F37B617B681B689A687B6838
:100C48001B795B00032101FA03F3DB4319467B6838
:100C58001B680A409A607B681B6899687B681B68F8
:100C68007A690A439A607B68DB791A467B681B7944
:100C78005B0002FA03F37B617B681B68DA687B68B8
:100C88001B795B00032101FA03F3DB4319467B68F8
:100C98001B680A40DA607B681B68D9687B681B6838
:100CA8007A690A43DA607B681B7A1A467B681B7983
:100CB80002FA03F37B617B681B685A687B681B79BF
:100CC800194601238B40DB4319467B681B680A40A1
:100CD8005A607B681B6859687B681B687A690A4395
:100CE8005A607B685B79022B31D17B681B79DB0802
:100CF8003B747B681B7903F00703FB737B681B68F5
:100D08003A7C083253F82210FB7B9B000F2202FA30
:100D180003F3DB4318467B681B683A7C01400832C2
:100D280043F822107B681B683A7C083253F822107B
:100D38007B685B7A1A46FB7B9B0002FA03F3184632
:100D48007B681B683A7C0143083243F8221000BFD5
:100D58001837BD4680BD00BF00380240003801404A
:100D6800003C014080B483B000AF78607B685B686A
:100D780043F480427B685A6000BF0C37BD465DF87B
:100D8800047B704780B483B000AF78600B46FB707B
:100D9800FB78012B1ED17B681B6843F002027B683D
:100DA8001A607B681B6843F004027B681A607B68E2
:100DB8001B6843F020027B681A607B681B6843F05D
:100DC80008027B681A607B681B6843F010027B6826
:100DD8001A601DE07B681B6823F002027B681A60BA
:100DE8007B681B6823F004027B681A607B681B68B9
:100DF80023F020027B681A607B681B6823F00802D6
:100E08007B681A607B681B6823F010027B681A6095
:100E180000BF0C37BD465DF8047B704780B483B0D3
:100E280000AF78600B46FB70FB78012B06D17B681E
:100E38001B6843F001027B681A6005E07B681B6849
:100E480023F001027B681A6000BF0C37BD465DF8CD
:100E5800047B704780B483B000AF00237B607B685D
:100E680018460C37BD465DF8047B704780B584B0E2
:100E780000AF254B9B689B08DBB203F003033B7272
:100E88003B7A002B02D1214BFB600BE03B7A012B14
:100E980002D11F4BFB6005E03B7A022B02D1FFF722
:100EA800D9FFF860184B9B681B09DBB203F00F03EE
:100EB800FB71FB79072B02D801237B8105E0FB79C5
:100EC800083B144A32F813307B810F4B9B689B0A0E
:100ED800DBB203F00703FB71FB79032B02D8012374
:100EE8007B7204E0FB79043B0B4AD35C7B727B8901
:100EF800FA68B2FBF3F27B7AB2FBF3F33B603B6830
:100F080018461037BD4680BD003802400024F40062
:100F180000127A00200000203000002080B483B046
:100F280000AF78600B46FB70FB78012B2BD17B68F8
:100F38002D4A934206D12D4B1B6C2C4A43F40013C7
:100F480013644BE07B682A4A934206D1274B1B6CFB
:100F5800264A43F48003136440E07B68254A9342A1
:100F680006D1224B1B6C214A43F40003136435E07D
:100F78007B68214A934231D11C4B1B6C1B4A43F0BE
:100F8800807313642AE07B68174A934206D1174B93
:100F98001B6C164A23F4001313641FE07B68144A81
:100FA800934206D1114B1B6C104A23F4800313643F
:100FB80014E07B680F4A934206D10C4B1B6C0B4A1A
:100FC80023F40003136409E07B680B4A934205D1BC
:100FD800064B1B6C054A23F08073136400BF0C3763
:100FE800BD465DF8047B704700540040003802405D
:100FF80000580040005C00400060004080B584B0AC
:1010080000AF78607B681B6801211846FFF786FFF0
:101018007B6800229A770023FB607B681B7A5B0061
:101028001A46FB681343FB607B681B68FA689A6082
:101038007B681B689A687B681B6822F480629A60E8
:101048007B681B689A687B681B6842F400429A6058
:101058000023FB727B685B68FB72FFF707FF0346A0
:101068001B4A934207D1FA7A7B681B68194951F8E1
:1010780022201A6128E0FFF7F9FE0346164A934238
:1010880007D1FA7A7B681B68144951F822201A6143
:101098001AE0FFF7EBFE0346114A934207D1FA7AAA
:1010A8007B681B680F4951F822201A610CE0FFF792
:1010B800DDFE03460C4A934206D1FA7A7B681B6828
:1010C8000A4951F822201A6100BF1037BD4680BD79
:1010D80000127A00340000200024F40044000020AC
:1010E800006CDC025400002080F937036400002003
:1010F80080B483B000AF03460A46FB711346BB7148
:10110800BB79012B4ED1FB791F2B0AD8504B1B689A
:10111800FA79012101FA02F211464D4A0B43136094
:101128008FE0FB791F2B0FD9FB793F2B0CD8494B4C
:101138001B68FA7902F01F02012101FA02F2114636
:10114800444A0B4313607CE0FB793F2B0FD9FB79B2
:101158005F2B0CD8404B1B68FA7902F03F02012143
:1011680001FA02F211463C4A0B43136069E0FB792D
:101178005F2B66D997F90730002B62DB374B18686D
:10118800FA79374BA3FB021399090B465B000B4412
:101198005B01D31ADBB21A46012393402F4A03435B
:1011A80013604EE0FB791F2B0AD82E4B1B68FA7987
:1011B800012101FA02F211462A4A0B43136040E06A
:1011C800FB791F2B0FD9FB793F2B0CD8264B1B68BB
:1011D800FA7902F01F02012101FA02F21146224AAD
:1011E8000B4313602DE0FB793F2B0FD9FB795F2B65
:1011F8000CD81E4B1B68FA7902F03F02012101FA54
:1012080002F21146194A0B4313601AE0FB795F2B6F
:1012180017D997F90730002B13DB154B1868FA79A3
:101228000F4BA3FB021399090B465B000B445B01B0
:10123800D31ADBB21A46012393400D4A03431360C5
:10124800FFE700BF0C37BD465DF8047B704700BF61
:1012580000E100E004E100E008E100E00CE100E06A
:10126800ABAAAAAA80E100E084E100E088E100E0FE
:101278008CE100E080B483B000AF78600B46FB706F
:10128800FA787B689A6200BF0C37BD465DF8047B2C
:10129800704780B483B000AF78607B685B6ADBB26C
:1012A80018460C37BD465DF8047B704780B483B0A0
:1012B80000AF78607B681B681A687B681B6822F03F
:1012C80002021A607B681B681A687B681B6822F038
:1012D80020021A607B681B681A687B681B6822F00A
:1012E80040021A607B6800221A777B680022DA6065
:1012F8007B6800225A6100BF0C37BD465DF8047B4D
:10130800704780B483B000AF78607B681B681A6848
:101318007B681B6822F004021A607B681B681A68E5
:101328007B681B6822F020021A607B681B681A68B9
:101338007B681B6822F040021A607B6800221A77DB
:101348007B6800221A617B6800229A617B68002210
:101358001A6200BF0C37BD465DF8047B704780B544
:1013680084B000AF78607B681B681B6803F00803D3
:10137800FB607B681B689B6903F00803BB60FB6824
:10138800002B12D0BB68002B0FD07B681B68DA6972
:101398007B681B6842F00802DA617B681B685A6840
:1013A8007B681B6822F400425A607B681B681B68D4
:1013B80003F01003FB607B681B689B6903F0100354
:1013C800BB60FB68002B0ED0BB68002B0BD07B6882
:1013D8001B68DA697B681B6842F01002DA61032136
:1013E8007868FEF7B5FF7B681B681B6803F040034D
:1013F800FB607B681B689B6903F04003BB60FB686C
:10140800002B13D0BB68002B10D07B6893F82430D6
:10141800002B04D17B681B681846FFF7A3FC78688B
:10142800FFF744FF7B681B6800225A607B681B68D3
:101438001B6803F02003FB607B681B689B6903F053
:101448002003BB60FB68002B0AD0BB68002B07D0C9
:101458007B681B68DA697B681B6842F02002DA61E6
:101468007B681B681B6803F00203FB607B681B68D2
:101478009B6903F00203BB60FB68002B2AD0BB68A2
:10148800002B27D07B689B7F012B18D17B681B7FA3
:10149800022B1FD17B685B69002B1BD07B68DB6844
:1014A8001A787B681B689A627B685B695A1E7B683E
:1014B8005A617B68DB685A1C7B68DA600AE07B68E3
:1014C8001B689B6903F48033002B03D004217868E0
:1014D800FEF73EFF7B681B681B6803F00403FB6094
:1014E8007B681B689B6903F00403BB60FB68002BE7
:1014F80044D0BB68002B41D07B689B7F012B32D145
:101508007B681B7F012B39D17B689B69002B10D02E
:101518007B681B685A6A7B681B69D2B21A707B6841
:101528009B695A1E7B689A617B681B695A1C7B6899
:101538001A617B689B69002B20D17B6893F8243063
:10154800002B04D17B681B681846FFF70BFC7868F2
:10155800FFF7D7FE01217868FEF7FAFE7B681B6863
:1015680000225A600AE07B681B689B6903F4803399
:10157800002B03D105217868FEF7EAFE00BF10377B
:10158800BD4680BD80B584B000AF78607B681B68BD
:101598001B6803F08003FB607B681B689B6903F48E
:1015A8008073BB60BB68002B0ED0FB68002B0BD090
:1015B8007B681B68DA697B681B6842F48072DA61B1
:1015C80000217868FEF7C4FE7B681B689B6903F4FA
:1015D8000073BB60BB68002B0ED0FB68002B0BD0E0
:1015E8007B681B68DA697B681B6842F40072DA6101
:1015F80001217868FEF7ACFE7B681B689B6903F4E1
:101608008063BB60BB68002B0ED0FB68002B0BD03F
:101618007B681B68DA697B681B6842F48062DA6160
:1016280002217868FEF794FE7B681B689B6903F4C7
:101638008053BB60BB68002B0ED0FB68002B0BD01F
:101648007B681B68DA697B681B6842F48052DA6140
:1016580003217868FEF77CFE00BF1037BD4680BDC9
:10166800DFF834D00D480E490E4A002302E0D45862
:10167800C4500433C4188C42F9D30B4A0B4C0023D2
:1016880001E013600432A242FBD3AFF3008000F004
:1016980011F8FEF723FE7047000008200000002024
:1016A800D800002084210008D8000020E805002088
:1016B800FEE7000070B50D4D0D4C641BA41000260C
:1016C800A64209D10B4D0C4C00F0F6FC641BA4108B
:1016D8000026A64205D170BD55F8043B984701364F
:1016E800EEE755F8043B98470136F2E77C210008FD
:1016F8007C2100087C210008802100080A449142CE
:1017080000F1FF3300D1704710B511F8014B03F811
:10171800014F9142F9D110BD02440346934200D1D2
:10172800704703F8011BF9E770B50E46054618B176
:1017380083690BB900F00CFAAB69AC6813B9284699
:1017480000F006FA234B9C4217D16C68A3891B074B
:101758001DD52369DBB1013EA36816F8011F013BC3
:10176800A360E9B9002B2EDA22460A21284600F0A8
:101778003FF8013011D00A2011E0174B9C4201D1EB
:10178800AC68E3E7154B9C4208BFEC68DEE72146EE
:10179800284600F07FF80028DDD04FF0FF3070BDFC
:1017A800002B04DAA2699A4206DC0A2904D02368CD
:1017B8005A1C22601970CFE72246284600F018F814
:1017C8000130C9D1E9E723680A205A1C2260187041
:1017D800E5E700BF3421000854210008142100085F
:1017E800024B01461868FFF79FBF00BF7400002036
:1017F800F8B50E461446054618B183690BB900F0D2
:10180800A7F9214B9C422BD16C68A369A360A389DB
:101818001A072FD523696BB323692068C01A636937
:10182800F6B28342374604DC2146284600F026F902
:1018380030BBA368013BA36023685A1C22601E705A
:1018480063690130834204D0A389DB0706D50A2ED9
:1018580004D12146284600F011F988B93846F8BD68
:101868000A4B9C4201D1AC68CFE7094B9C4208BFA8
:10187800EC68CAE72146284600F00CF80028CBD0CF
:101888004FF0FF37EAE700BF342100085421000871
:1018980014210008324B70B51D6806460C4625B168
:1018A800AB6913B9284600F053F92E4B9C420FD16F
:1018B8006C68A389B4F90C2019072CD4DD0611D45F
:1018C8000923336042F04003A3814FF0FF303EE02C
:1018D800254B9C4201D1AC68EBE7244B9C4208BFE6
:1018E800EC68E6E7580712D5616B41B104F144038F
:1018F800994202D0304600F01DFA00236363A389A1
:1019080023F02403A3810023636023692360A38950
:1019180043F00803A38123694BB9A38903F4207317
:10192800B3F5007F03D02146304600F0C3F9A08903
:10193800B4F90C2010F001030AD00023A3606369F6
:101948005B42A361236943B910F08000BAD170BD2E
:10195800810758BF6369A360F4E70020F7E700BF79
:1019680074000020342100085421000814210008C4
:101978008A892DE9F041054610070C4658D44B6872
:10198800002B05DC0B6C002B02DC0020BDE8F0818D
:10199800E66A002EF9D0002312F480522F68216ADB
:1019A8002B6032D0606DA3895A0705D56368C01AC9
:1019B800636B0BB1236CC01A00230246E66A216AE6
:1019C8002846B047431CA38906D129681D292BD86E
:1019D800294A0A41D60727D400226260D90422691D
:1019E800226004D5421C01D12B6803B96065616B84
:1019F8002F600029C9D004F14403994202D0284637
:101A080000F098F900206063C0E701232846B0473A
:101A1800411CC8D12B68002BC5D01D2B01D0162B1B
:101A280001D12F60B1E7A38943F04003A381ADE75B
:101A38000F69002FA9D093070E6808BF4B690F6084
:101A480018BF0023A6EB07088B60B8F1000F9CDDD8
:101A5800216AA66A43463A462846B047002806DC6B
:101A6800A38943F04003A3814FF0FF308EE707447A
:101A7800A8EB0008E9E700BFFEFFBFDF38B50B6938
:101A880005460C46DBB118B183690BB900F060F864
:101A98000C4B9C4209D16C68B4F90C307BB12146DF
:101AA8002846BDE83840FFF763BF074B9C4201D189
:101AB800AC68F1E7054B9C4208BFEC68ECE70020F6
:101AC80038BD00BF34210008542100081421000843
:101AD800002310B50446C0E90033C0E9043383602D
:101AE80081814366C2818361194608225C30FFF711
:101AF80013FE054B6362054BA362054BE362054B7E
:101B08002462236310BD00BF1D1F00083F1F00088B
:101B1800771F00089B1F0008014900F085B800BF27
:101B2800851A000870B568234D1E5D430E4605F101
:101B3800740100F06BF9044640B10021C0E90016B9
:101B48000C30A06005F16802FFF7E6FD204670BD85
:101B5800836910B5044633BBC0E912330365124BE1
:101B6800124A1B688262984204BF0123836100F015
:101B78001FF86060204600F01BF8A060204600F0C7
:101B880017F80022E06004216068FFF7A1FFA06851
:101B980001220921FFF79CFFE06802221221FFF7CA
:101BA80097FF0123A36110BD10210008211B000825
:101BB800F8B51B4B1E68B369074613B93046FFF7E3
:101BC800C7FF4836D6E90134013B03D53368DBB19A
:101BD8003668F7E7B4F90C50A5B9124B6566C4E945
:101BE8000055C4E90335C4E90555A560082229460E
:101BF80004F15C00FFF790FDC4E90D55C4E91255E6
:101C08002046F8BD6834DFE704213846FFF78AFF2D
:101C1800044630600028DBD10C233B60F0E700BFAE
:101C2800102100080100FFFF2DE9F8430646884609
:101C380000F148040027D4E90195B9F1010905D557
:101C48002468002CF7D13846BDE8F883AB89012B0E
:101C580007D9B5F90E30013303D029463046C047BD
:101C680007436835E9E770B50C46B1F90E1000294D
:101C780096B015461E460DDAA38913F0800F4FF073
:101C880000010CBF4FF480634023002031602B60BB
:101C980016B070BD6A4600F091F90028ECDB019996
:101CA80001F47041A1F50053594259414FF4806342
:101CB800EBE700008B8973B59D0706460C4607D5F0
:101CC80004F14703236023610123636102B070BDFF
:101CD80001AB6A46FFF7C7FF00990546304600F09A
:101CE80095F848B9B4F90C309A05EFD423F00303FA
:101CF80043F00203A381E3E70D4BB362A38920609D
:101D080043F08003A381009B6361019B20615BB169
:101D1800B4F90E10304600F063F928B1A38923F016
:101D2800030343F00103A381A3891D43A581CDE7E4
:101D3800211B000837B5002944D051F8043C019014
:101D4800002BA1F10404B8BFE41800F06BF91E4A97
:101D58000198136833B96360146003B0BDE830407C
:101D680000F061B9A34208D9256861198B4201BF07
:101D780019685B6849192160EDE71A465B680BB181
:101D8800A342FAD911685518A5420BD124682144F9
:101D98005418A3421160E0D11C685B6853600C447E
:101DA8001460DAE702D90C230360D6E725686119C5
:101DB8008B4204BF19685B68636004BF49192160DE
:101DC8005460CAE703B030BDD805002070B50E4E88
:101DD8000C463168054611B900F08CF83060214690
:101DE800284600F087F8431C0AD0C41C24F00304DA
:101DF800A04207D0211A284600F07CF8013001D112
:101E08004FF0FF34204670BDDC0500202DE9F0417D
:101E1800CD1C25F0030508350C2D38BF0C25002DE9
:101E2800074601DBA94205D90C233B600026304652
:101E3800BDE8F0812E4E00F0F5F833681C4634BB3F
:101E480029463846FFF7C2FF431C04464DD1346883
:101E58002646002E40D123683146384604EB030855
:101E680000F048F880453AD123680335ED1A25F08B
:101E7800030508350C2D38BF0C2529463846FFF7D1
:101E8800A5FF01302BD023682B4423600EE0226885
:101E9800521B1ED40B2A16D96119A342256018BFFC
:101EA8005960636808BF316062514B60384604F17D
:101EB8000B0600F0B8F826F00706231DF21AB6D074
:101EC8009B1BA350B3E76268A3420CBF32605A6001
:101ED800ECE723466468B2E734467668B9E70C2332
:101EE8003B60384600F09FF8A1E72560DEE700BFB9
:101EF800D805002038B5064D0023044608462B6057
:101F080000F0CCF8431C02D12B6803B1236038BD24
:101F1800E005002010B50C46B1F90E1000F084F869
:101F28000028ABBF636DA3891B1823F48053ACBF93
:101F38006365A38110BD2DE9F0411F468B89DB0540
:101F480005460C46164605D5B1F90E1002230022A7
:101F580000F056F8A389B4F90E1023F48053A38136
:101F680032463B462846BDE8F041FEF723BC10B593
:101F78000C46B1F90E1000F043F8431CA38915BFB5
:101F8800606523F4805343F48053A38118BFA38171
:101F980010BDB1F90E1000F001B8000038B5064DBB
:101FA8000023044608462B6000F050F8431C02D179
:101FB8002B6803B1236038BDE005002038B5074D14
:101FC80000230446084611462B6000F047F8431CDE
:101FD80002D12B6803B1236038BD00BFE0050020A3
:101FE80038B5064D0023044608462B6000F03EF83D
:101FF800431C02D12B6803B1236038BDE0050020E3
:1020080038B5074D04460846114600222A601A468C
:1020180000F034F8431C02D12B6803B1236038BDAB
:10202800E00500207047704738B5074D044608465C
:10203800114600222A601A4600F028F8431C02D1F3
:102048002B6803B1236038BDE0050020024B5822FD
:102058001A604FF0FF307047E0050020024B58220D
:102068001A604FF0FF307047E0050020024B5822FD
:102078001A600020704700BFE0050020024B58227C
:102088001A604FF0FF307047E0050020024B5822DD
:102098001A604FF0FF307047E0050020044A0549F8
:1020A8001368002B08BF0B46184410601846704789
:1020B800E4050020E8050020F8B500BFF8BC08BC1E
:1020C8009E467047F8B500BFF8BC08BC9E467047EE
:1020D8004170706C69636174696F6E2069732072F6
:1020E800756E6E696E6700005465726D696E616C1D
:1020F8000000000000000000000054545220524527
:102108004747455300000000780000200000000009
:1021180000000000000000000000000000000000B7
:1021280000000000000000000000000000000000A7
:102138000000000000000000000000000000000097
:102148000000000000000000000000000000000087
:102158000000000000000000000000000000000077
:0C2168000000000000000000000000006B
:08217400E0FEFF7F0100000006
:04217C002D02000828
:042180000902000848
:1021840053544D333220736C617665206D6F6465F2
:102194002074657374696E672E2E2E2E0000000065
:1021A400020004000800100040008000000100024A
:1021B40002040810C7C34210130F42100903310070
:1021C40006031000C7C342305B3D300009033210E0
:1021D40004022000C7C342B0130F42B009033350B6
:1021E40003011050FF7B41D0312AD340200DA610AB
:1021F4001609900078000020000000003421000837
:102204005421000814210008000000000000000010
:1022140000000000000000000000000000000000BA
:1022240000000000000000000000000000000000AA
:10223400000000000000000000000000000000009A
:10224400000000000000000000000000000000008A
:08225400000000000000000082
:040000050800166970
:00000001FF
